{
  "contractName": "NftSwap",
  "abi": [
    {
      "anonymous": false,
      "inputs": [
        {
          "indexed": false,
          "internalType": "address",
          "name": "makerAddress",
          "type": "address"
        },
        {
          "indexed": false,
          "internalType": "address",
          "name": "takerAddress",
          "type": "address"
        },
        {
          "indexed": false,
          "internalType": "address",
          "name": "makerContract",
          "type": "address"
        },
        {
          "indexed": false,
          "internalType": "uint256",
          "name": "makerID",
          "type": "uint256"
        },
        {
          "indexed": false,
          "internalType": "address",
          "name": "takerContract",
          "type": "address"
        },
        {
          "indexed": false,
          "internalType": "uint256",
          "name": "takerID",
          "type": "uint256"
        }
      ],
      "name": "newOrder",
      "type": "event"
    },
    {
      "inputs": [
        {
          "internalType": "uint256",
          "name": "",
          "type": "uint256"
        },
        {
          "internalType": "address",
          "name": "",
          "type": "address"
        },
        {
          "internalType": "uint256",
          "name": "",
          "type": "uint256"
        },
        {
          "internalType": "address",
          "name": "",
          "type": "address"
        }
      ],
      "name": "orders",
      "outputs": [
        {
          "internalType": "address",
          "name": "",
          "type": "address"
        }
      ],
      "stateMutability": "view",
      "type": "function",
      "constant": true
    },
    {
      "inputs": [
        {
          "internalType": "address",
          "name": "makerContract",
          "type": "address"
        },
        {
          "internalType": "uint256",
          "name": "makerID",
          "type": "uint256"
        },
        {
          "internalType": "address",
          "name": "takerContract",
          "type": "address"
        },
        {
          "internalType": "uint256",
          "name": "takerID",
          "type": "uint256"
        }
      ],
      "name": "validRecipient",
      "outputs": [
        {
          "internalType": "bool",
          "name": "",
          "type": "bool"
        }
      ],
      "stateMutability": "view",
      "type": "function",
      "constant": true
    },
    {
      "inputs": [
        {
          "internalType": "address",
          "name": "makerContract",
          "type": "address"
        },
        {
          "internalType": "uint256",
          "name": "makerID",
          "type": "uint256"
        },
        {
          "internalType": "address",
          "name": "takerContract",
          "type": "address"
        },
        {
          "internalType": "uint256",
          "name": "takerID",
          "type": "uint256"
        }
      ],
      "name": "makeOrder",
      "outputs": [],
      "stateMutability": "nonpayable",
      "type": "function"
    },
    {
      "inputs": [
        {
          "internalType": "address",
          "name": "makerContract",
          "type": "address"
        },
        {
          "internalType": "uint256",
          "name": "makerID",
          "type": "uint256"
        },
        {
          "internalType": "address",
          "name": "takerContract",
          "type": "address"
        },
        {
          "internalType": "uint256",
          "name": "takerID",
          "type": "uint256"
        }
      ],
      "name": "takeOrder",
      "outputs": [],
      "stateMutability": "nonpayable",
      "type": "function"
    }
  ],
  "bytecode": "0x608060405234801561001057600080fd5b50610e50806100206000396000f3fe608060405234801561001057600080fd5b506004361061004c5760003560e01c80636f2aa1ec146100515780639a5c90aa146100c9578063ad40ed8e14610141578063bf56f941146101d1575b600080fd5b6100c76004803603608081101561006757600080fd5b81019080803573ffffffffffffffffffffffffffffffffffffffff16906020019092919080359060200190929190803573ffffffffffffffffffffffffffffffffffffffff16906020019092919080359060200190929190505050610289565b005b61013f600480360360808110156100df57600080fd5b81019080803573ffffffffffffffffffffffffffffffffffffffff16906020019092919080359060200190929190803573ffffffffffffffffffffffffffffffffffffffff16906020019092919080359060200190929190505050610762565b005b6101b76004803603608081101561015757600080fd5b81019080803573ffffffffffffffffffffffffffffffffffffffff16906020019092919080359060200190929190803573ffffffffffffffffffffffffffffffffffffffff16906020019092919080359060200190929190505050610c9e565b604051808215151515815260200191505060405180910390f35b610247600480360360808110156101e757600080fd5b8101908080359060200190929190803573ffffffffffffffffffffffffffffffffffffffff16906020019092919080359060200190929190803573ffffffffffffffffffffffffffffffffffffffff169060200190929190505050610d9d565b604051808273ffffffffffffffffffffffffffffffffffffffff1673ffffffffffffffffffffffffffffffffffffffff16815260200191505060405180910390f35b61029584848484610c9e565b610307576040517f08c379a000000000000000000000000000000000000000000000000000000000815260040180806020018281038252600d8152602001807f696e76616c6964206f726465720000000000000000000000000000000000000081525060200191505060405180910390fd5b3373ffffffffffffffffffffffffffffffffffffffff168273ffffffffffffffffffffffffffffffffffffffff16636352211e836040518263ffffffff1660e01b81526004018082815260200191505060206040518083038186803b15801561036f57600080fd5b505afa158015610383573d6000803e3d6000fd5b505050506040513d602081101561039957600080fd5b810190808051906020019092919050505073ffffffffffffffffffffffffffffffffffffffff1614610433576040517f08c379a000000000000000000000000000000000000000000000000000000000815260040180806020018281038252601e8152602001807f6e6f74206f776e65722c2063616e6e6f7420637265617465206f72646572000081525060200191505060405180910390fd5b600080600085815260200190815260200160002060008673ffffffffffffffffffffffffffffffffffffffff1673ffffffffffffffffffffffffffffffffffffffff168152602001908152602001600020600083815260200190815260200160002060008473ffffffffffffffffffffffffffffffffffffffff1673ffffffffffffffffffffffffffffffffffffffff16815260200190815260200160002060009054906101000a900473ffffffffffffffffffffffffffffffffffffffff16905060008085815260200190815260200160002060008673ffffffffffffffffffffffffffffffffffffffff1673ffffffffffffffffffffffffffffffffffffffff168152602001908152602001600020600083815260200190815260200160002060008473ffffffffffffffffffffffffffffffffffffffff1673ffffffffffffffffffffffffffffffffffffffff16815260200190815260200160002060006101000a81549073ffffffffffffffffffffffffffffffffffffffff02191690558473ffffffffffffffffffffffffffffffffffffffff166323b872dd8233876040518463ffffffff1660e01b8152600401808473ffffffffffffffffffffffffffffffffffffffff1673ffffffffffffffffffffffffffffffffffffffff1681526020018373ffffffffffffffffffffffffffffffffffffffff1673ffffffffffffffffffffffffffffffffffffffff1681526020018281526020019350505050600060405180830381600087803b15801561067057600080fd5b505af1158015610684573d6000803e3d6000fd5b505050508273ffffffffffffffffffffffffffffffffffffffff166323b872dd3383856040518463ffffffff1660e01b8152600401808473ffffffffffffffffffffffffffffffffffffffff1673ffffffffffffffffffffffffffffffffffffffff1681526020018373ffffffffffffffffffffffffffffffffffffffff1673ffffffffffffffffffffffffffffffffffffffff1681526020018281526020019350505050600060405180830381600087803b15801561074357600080fd5b505af1158015610757573d6000803e3d6000fd5b505050505050505050565b61076e84848484610c9e565b156107e1576040517f08c379a000000000000000000000000000000000000000000000000000000000815260040180806020018281038252600d8152602001807f696e76616c6964206f726465720000000000000000000000000000000000000081525060200191505060405180910390fd5b3073ffffffffffffffffffffffffffffffffffffffff168473ffffffffffffffffffffffffffffffffffffffff1663081812fc856040518263ffffffff1660e01b81526004018082815260200191505060206040518083038186803b15801561084957600080fd5b505afa15801561085d573d6000803e3d6000fd5b505050506040513d602081101561087357600080fd5b810190808051906020019092919050505073ffffffffffffffffffffffffffffffffffffffff16146108f0576040517f08c379a0000000000000000000000000000000000000000000000000000000008152600401808060200182810382526021815260200180610dfa6021913960400191505060405180910390fd5b3373ffffffffffffffffffffffffffffffffffffffff168473ffffffffffffffffffffffffffffffffffffffff16636352211e856040518263ffffffff1660e01b81526004018082815260200191505060206040518083038186803b15801561095857600080fd5b505afa15801561096c573d6000803e3d6000fd5b505050506040513d602081101561098257600080fd5b810190808051906020019092919050505073ffffffffffffffffffffffffffffffffffffffff1614610a1c576040517f08c379a000000000000000000000000000000000000000000000000000000000815260040180806020018281038252601e8152602001807f6e6f74206f776e65722c2063616e6e6f7420637265617465206f72646572000081525060200191505060405180910390fd5b3360008085815260200190815260200160002060008673ffffffffffffffffffffffffffffffffffffffff1673ffffffffffffffffffffffffffffffffffffffff168152602001908152602001600020600083815260200190815260200160002060008473ffffffffffffffffffffffffffffffffffffffff1673ffffffffffffffffffffffffffffffffffffffff16815260200190815260200160002060006101000a81548173ffffffffffffffffffffffffffffffffffffffff021916908373ffffffffffffffffffffffffffffffffffffffff16021790555060008273ffffffffffffffffffffffffffffffffffffffff16636352211e836040518263ffffffff1660e01b81526004018082815260200191505060206040518083038186803b158015610b4b57600080fd5b505afa158015610b5f573d6000803e3d6000fd5b505050506040513d6020811015610b7557600080fd5b810190808051906020019092919050505090507fd06b7eafc57f4c43fe4d23b723d15b4f868019efc18feff984408d1734188c1c338287878787604051808773ffffffffffffffffffffffffffffffffffffffff1673ffffffffffffffffffffffffffffffffffffffff1681526020018673ffffffffffffffffffffffffffffffffffffffff1673ffffffffffffffffffffffffffffffffffffffff1681526020018573ffffffffffffffffffffffffffffffffffffffff1673ffffffffffffffffffffffffffffffffffffffff1681526020018481526020018373ffffffffffffffffffffffffffffffffffffffff1673ffffffffffffffffffffffffffffffffffffffff168152602001828152602001965050505050505060405180910390a15050505050565b60008060008086815260200190815260200160002060008773ffffffffffffffffffffffffffffffffffffffff1673ffffffffffffffffffffffffffffffffffffffff168152602001908152602001600020600084815260200190815260200160002060008573ffffffffffffffffffffffffffffffffffffffff1673ffffffffffffffffffffffffffffffffffffffff16815260200190815260200160002060009054906101000a900473ffffffffffffffffffffffffffffffffffffffff169050600073ffffffffffffffffffffffffffffffffffffffff168173ffffffffffffffffffffffffffffffffffffffff161415915050949350505050565b600060205283600052604060002060205282600052604060002060205281600052604060002060205280600052604060002060009350935050509054906101000a900473ffffffffffffffffffffffffffffffffffffffff168156fe6e6f7420617070726f7665642c2063616e6e6f7420637265617465206f72646572a2646970667358221220c5319f6496db47f7e7c7b0e2b45ee7d21d12f054bb080035c2cc7785cab81d3b64736f6c63430006060033",
  "immutableReferences": {},
  "source": "pragma solidity 0.6.6;\n\nimport \"@openzeppelin/contracts/token/ERC721/IERC721.sol\";\n\ncontract NftSwap {\n\n\tevent newOrder(address makerAddress, address takerAddress, address makerContract, uint256 makerID, address takerContract, uint256 takerID);\n\tmapping (uint256 => mapping (address => mapping (uint256 => mapping (address => address)))) public orders;\n\n\tfunction validRecipient(\n\t\taddress makerContract,\n\t\tuint256 makerID,\n\t\taddress takerContract,\n\t\tuint256 takerID    \n\t) public view returns (bool) {\n\t\taddress recipient = orders[makerID][makerContract][takerID][takerContract];\n\t\treturn recipient != address(0);\n\t}\n\n\tfunction makeOrder(\n\t\taddress makerContract,\n\t\tuint256 makerID,\n\t\taddress takerContract,\n\t\tuint256 takerID\n\t) public {\n\t\trequire(!validRecipient(makerContract, makerID, takerContract, takerID), \"invalid order\");\n\t\trequire(\n\t\t\tIERC721(makerContract).getApproved(makerID) == address(this),\n\t\t\t\"not approved, cannot create order\"\n\t\t);\n\n\t    // only the token owner can create the order\n\t    require(\n\t\t\tIERC721(makerContract).ownerOf(makerID) == msg.sender,\n\t\t\t\"not owner, cannot create order\"\n\t    );\n\t\t// create the order\n\t    orders[makerID][makerContract][takerID][takerContract] = msg.sender;\n\n\t\t// retrieve and emit the takerAddress \n\t\taddress takerAddress = IERC721(takerContract).ownerOf(takerID);\n\t\temit newOrder(msg.sender, takerAddress, makerContract, makerID, takerContract, takerID);\n\t}\n\n\tfunction takeOrder(\n\t\taddress makerContract,\n\t\tuint256 makerID,\n\t\taddress takerContract,\n        uint256 takerID\n    ) public {\n\t\trequire(validRecipient(makerContract, makerID, takerContract, takerID), \"invalid order\");\n\n\t\t// only the token owner can create the order\n\t    require(\n\t\t\tIERC721(takerContract).ownerOf(takerID) == msg.sender,\n\t\t\t\"not owner, cannot create order\"\n\t    );\n\n\t\taddress recipient = orders[makerID][makerContract][takerID][takerContract];\n\n\t\tdelete orders[makerID][makerContract][takerID][takerContract];\n\t\t// transfer the order maker token from maker to taker\n\t\tIERC721(makerContract).transferFrom(recipient, msg.sender, makerID);\n\t\t// transfer the order taker token from taker to maker\n\t\tIERC721(takerContract).transferFrom(msg.sender, recipient, takerID);\n\t}\n}\n",
  "sourcePath": "/home/kyle/myfiles/wtf/contracts/NftSwap.sol",
  "compiler": {
    "name": "solc",
    "version": "0.6.6+commit.6c089d02.Emscripten.clang"
  },
  "schemaVersion": "3.3.2",
  "updatedAt": "2021-03-19T06:10:59.774Z",
  "networkType": "ethereum",
  "devdoc": {
    "methods": {}
  },
  "userdoc": {
    "methods": {}
  }
}